:02000000252AAF
:06000600000000000800EC
:10000C000F3083120313FC004730FD00FD0B0C284E
:0A001C00FC0B0C2800000000080097
:0E002600213083120313FD00FD0B1728080084
:1000340083160313D41B21288312861323288312C7
:1000440086178316541B2928831206132B28831220
:1000540006178316D41A3128831286123328831282
:1000640086168316541A3928831206123B288312E3
:1000740006166D183F28061540280611861503201C
:1000840086118316D4194928831286134B288312A8
:100094008617831654195128831206135328831282
:1000A40006178316D4185928831286125B288312E4
:1000B4008616831654186128831206126328831245
:1000C40006166D186728061568280611861503207C
:0E00D40086116D1C6F2806207028132008006E
:1000E200831603178C1C772800007128031352080B
:1000F200831203178D008316031353088312031709
:100102008C0083168C130C150B08F0008B135530E2
:100112008D00AA308D008C14F01B91288B1392282D
:060122008B170C11080010
:10012800831203136D1083165208D4001A206D141D
:020138000800BD
:0E013A00831203136F088A006E08820008000B
:1001480083160313D20183126A088316D300712021
:1001580001300313D20083126B088316D300712079
:1001680002300313D20083126C088316D300712067
:0201780008007D
:10017A00CF28803083160313CE00E228C030CE0089
:10018A00E2289430CE00E228D430CE00E228803033
:10019A00CE00E228831603134E08013A0319BE283B
:1001AA004E08023A0319C3284E08033A0319C6280F
:1001BA004E08043A0319C928CC284F03F0004E0808
:1001CA00F0077008CE007008D4001A206D1083164C
:1001DA00D10151085007840000080319FD2851086D
:1001EA00500784000008D20094208316D10AEE2812
:0601FA0083126D140800E1
:10020000831603134E08831203178D0083168C1375
:0A0210000C1483120C08F000080023
:10021A001F29803083160313CE003229C030CE0046
:10022A0032299430CE003229D430CE00322980309F
:10023A00CE003229831603134E08013A03190E29F8
:10024A004E08023A031913294E08033A03191629CC
:10025A004E08043A031919291C294F03F0004E08C5
:10026A00F0077008CE0083126D1470088316D4004C
:10027A001A206D1083165008D4001A206D14080035
:10028A003030831203132407A00030302507A10061
:10029A0030302607A20002308316CE000730CF0086
:1002AA002030D000BD2002308316CE0083122708EA
:0E02BA00073E8316CF005F30D0000D210800F4
:1002C8008312031388146830FC00E430FD00FD0B32
:0C02D8006B29FC0B6B290000881008004B
:1002E40083120313F101F20180307206F0008030B2
:1002F4007002031D7F290330710203189A298814A0
:10030400D030FC00C930FD00FD0B8629FC0B86298A
:100314000000000088106830FC00E430FD00FD0B94
:100324009129FC0B91290000F10A0319F20A76299C
:020334000800BF
:1003360083160313CE01002170080313EA0001306F
:100346008316CE00002170080313EB0002308316DB
:10035600CE00002170080313EC006A08093C03185C
:0C036600B829EA01EB01EC01A42008001A
:1003720083160313861106110612861206138613BC
:1003820083128611061186130613861206120620A0
:1003920006200620861606168615032086110620DC
:1003A2008615032086110620861503208611062055
:1003B2000612861503208611062086150320861153
:1003C20086128617861503208611062086130616C6
:1003D2008615032086110612861503208611062033
:1003E200861503208611061686150320861106201F
:1003F200061286150320861186170617861606161C
:0C04020086150320861106206D140800EA
:10040E008312031388140930FB001E30FC00E43005
:10041E00FD00FD0B102AFC0B102AFB0B102A00000E
:04042E00881008002A
:100432009D208A110A128000840AEE0A0319EF0A2B
:08044200F003031D192A080054
:10044A00DC233030831603138800831208108810C7
:10045A00B9219B21013083160313D4001A200C30D2
:10046A008316D4001A2001308316CE000430CF0040
:10047A00B330D000BD200B30FB002630FC005D30CD
:10048A00FD00FD0B462AFC0B462AFB0B462A000000
:10049A00000001308316D4001A2001308316CE00E2
:1004AA000130CF00A030D000BD20A701A401A501D2
:1004BA00A601033027020318872A4521881E7F2AAE
:1004CA002708243EF10071088400000AF000710830
:1004DA008400700880002708243E84000008093C34
:1004EA0003187B2A2708243E840080016421881E81
:1004FA007F2A7C2A081E862AA70A6421081E862AC1
:10050A00832A5E2A01308316D4001A2024086A0638
:10051A00031D462B25086B06031D462B26086C0671
:10052A00031D462B01308316CE000430CF0046301F
:10053A00D000BD2002308316CE000330CF005E30DB
:10054A00D000BD20081472211030FB003930FC00A5
:10055A000D30FD00FD0BAF2AFC0BAF2AFB0BAF2AB7
:10056A000000000001308316D4001A2001308316DF
:10057A00CE000130CF004F30D000BD2002308316AC
:10058A00CE000130CF002830D000BD20A7011E3098
:10059A0027020318442B081E352B642101308316C9
:1005AA00D4001A2001308316CE000130CF00383033
:1005BA00D000BD20A701A401A501A601033027028E
:1005CA000318182B4521881E042B2708243EF10006
:1005DA0071088400000AF000710884007008800025
:1005EA002708243E84000008093C0318002B27082A
:1005FA00243E840080016421881E042B012B081EDE
:10060A00172B27086A3EF1002708243E84000008B9
:10061A00F0007108840070088000A70A6421081E8F
:10062A00172B142BE32AA42001300313D4001A2019
:10063A0001308316CE000330CF00C030D000BD2079
:10064A0072210B30FB002630FC005D30FD00FD0BF3
:10065A002C2BFC0B2C2BFB0B2C2B00000000442B0F
:10066A000230FB000430FC00BA30FD00FD0B3B2BCE
:10067A00FC0B3B2BFB0B3B2B0000A70ACC2A0810D8
:10068A005D2B01308316CE000430CF00AC30D00091
:10069A00BD2007220B30FB002630FC005D30FD0038
:1006AA00FD0B552BFC0B552BFB0B552B00000000AB
:0406BA004E2A5E2B3B
:1007B800203084004A3083120313F0006430EE00C6
:1007C8000330EF001922A03084002E308312F0008D
:0C07D800AE30EE000330EF0019220800E4
:0806C8003034303430340034CA
:0606D00000340034003488
:0206D6000034EE
:1006D8004334683461346E346734653420345034BC
:1006E80061347334733477346F347234643400345F
:1006F80053346534743420344E34653477342034BC
:0C07080043346F34643465343A340034F8
:1007140043344F3452345234453443345434213402
:0207240000349F
:1007260050347234653473347334203445344E3463
:0E073600543445345234203474346F3400345B
:100744004C344F3443344B3420344F3450344534D8
:080754004E34453444340034F6
:10075C0045346E34743465347234203443346F341D
:08076C00643465343A340034B2
:0E077400573452344F344E344734213400345D
:10078200533459345334543445344D342034523470
:0A0792004534413444345934003436
:10079C0043344F3444344534203455345034443489
:0C07AC00413454344534443421340034CA
:02400E004A2F37
:00000001FF
