:02000000B62A1E
:06000600000000000800EC
:10000C000F3083120313FC004730FD00FD0B0C284E
:0A001C00FC0B0C2800000000080097
:0E002600213083120313FD00FD0B1728080084
:1000340083120313CA1B20288813212888174A1BFC
:100044002528081326280817CA1A2A2888122B28B4
:1000540088164A1A2F280812302808163B18342804
:10006400081535280811881503208811CA193C2859
:1000740088133D2888174A1941280813422808176D
:10008400CA1846288812472888164A184B28081286
:100094004C2808163B1850280815512808118815B3
:1000A400032088113B1C58280620592813200800D7
:1000B40083120313F8010830FC00700DF80D740866
:1000C400F80203186728F8070310F00DFC0B5F28EB
:0200D400080022
:1000D600831203133B104908CA001A203B14080078
:1000E6008528803083120313C5009828C030C500C8
:1000F60098289430C5009828D430C50098288030B8
:10010600C5009828831203134508013A0319742879
:100116004508023A031979284508033A03197C2849
:100126004508043A03197F2882284603F00045084B
:10013600F0077008C5003B147008CA001A203B106F
:0A0146004708CA001A203B14080005
:1001500083120313C701033047020318B628470868
:100160004607840020308000C70AAB2847084607AE
:1001700084008001C70347084607C8000A30F4001E
:100180004508F0005A207808F0003030F0074808A1
:100190008400700880000A30F4004508F0005A20FE
:1001A0007008C5007008003A031DD728D928C70376
:0401B000BB28080060
:1001B400EC28803083120313C500FF28C030C5002B
:1001C400FF289430C500FF28D430C500FF288030B4
:1001D400C500FF28831203134508013A0319DB28DD
:1001E4004508023A0319E0284508033A0319E328AD
:1001F4004508043A0319E628E9284603F0004508AF
:10020400F0077008C5007008CA001A203B10C80126
:1002140048084707840000080319182948084707B5
:1002240084000008C9006B20C80A0A293B1408008E
:0E0234008312031338088A003708820008007E
:100242000E3083120313FD00FD0B25290000080068
:1002520083120313FB01FA01F9018030F800F10C5B
:10026200F00C031C3D297408F90775080318750F73
:10027200FA070318FB0A0310F01F45297408FA074E
:1002820075080318750FFB07FB0CFA0CF90CF80C38
:10029200031C30297B08F3007A08F2007908F10088
:0602A2007808F0000800DE
:1002A800013083120313CA001A200130C50001303F
:1002B800C6002630C700DA200130C5000430C60069
:1002C8002508C70073203308C5002D30C600A820B4
:1002D8000130C5000630C6002D30C700DA200230D4
:1002E800C5000130C6002030C700DA200230C50042
:1002F8000430C6002408C70073203608C5002D3016
:10030800C600A8200230C5000630C6002D30C70040
:04031800DA200800DF
:10031C00831603131208013EF000F1010318F10AD1
:10032C0083124108F400F50129210630F20070080F
:10033C00F4007108F50072080319A929F50CF40CE6
:10034C00F513FF3EA2290430F1007408F000710887
:10035C000319B429F00D7010FF3EAE293030700532
:10036C00F3007408F0007508F100F10CF00CF113B7
:10037C00F10CF00CF11370089B000F309D05730805
:04038C009D040800C4
:10039000831603130711831212150C3097040800FB
:1003A000831203139F01C0309F042A09F0007008D4
:1003B00083169F051F179F1783124108F000F00D49
:1003C0007010F00D7010F00D701070089F041F1465
:1003D00021211F151F1DEE290000EA291F101E08EC
:1003E000F100F00183161E08F0040030F10408004B
:1003F000831603138710831212150C309D04080016
:10040000831603131208013EF000F1010318F10AEC
:1004100083124108F400F50129210630F20070082A
:10042000F4007108F500720803191B2AF50CF40C8E
:10043000F513FF3E142A0430F1007408F00071082F
:100440000319262AF00D7010FF3E202A3030700567
:10045000F3007408F0007508F100F10CF00CF113D2
:10046000F10CF00CF113700895000F30970573082C
:0404700097040800E5
:0C047400831203139B011D129D1208004F
:0C04800083120313950117129712080055
:10048C00FF3083120313BC00FF30BD00FF30BE00F1
:10049C00FF309F01C0309F042A09F00070088316BA
:0C04AC009F051F179F1783121F140800E4
:1004B8001A218A110A128000840AB70A0319B80A95
:0804C800F003031D5C2A08008B
:1004D0008316031388110811081288120813881351
:1004E0008312881108118813081388120812062035
:1004F0000620062088160816881503208811062075
:1005000088150320881106208815032088110620ED
:1005100008128815032088110620881503208811E9
:10052000881288178815032088110620881308165A
:1005300088150320881108128815032088110620C9
:1005400088150320881108168815032088110620B5
:1005500008128815032088118817081788160816AE
:0C05600088150320881106203B140800B9
:10056C005E2383160313880168220C30CA001A20FC
:10057C003030831686004622121492147C30831677
:10058C0092004022121492147C30831692003A226C
:10059C00C821F821831681138312C101D021700860
:1005AC008312B4007108B5000130C100D02170086D
:1005BC008312B9007108BA003408F5003508F6004A
:1005CC00F60CF50CF613F60CF50CF6137508B300D7
:1005DC007008F2007108F300F30CF20CF313F30C37
:1005EC00F20CF3137208B6007508C100002236082D
:1005FC00C1008E21061A112B2C08013A031D112B58
:10060C002508463A031D0D2B5230BF000F2B4630E8
:10061C00BF003F08A5000030061A0130AC00861A56
:10062C00262B2B08013A031D262B2408463A031DC2
:10063C00222B5230C000242B4630C0004008A400AE
:10064C000030861A0130AB002508463A031D312BC9
:10065C0006148610332B061086142408463A031D04
:10066C003A2B061586113C2B0611861554210330A6
:10067C00FB000830FC007730FD00FD0B432BFC0B1E
:0A068C00432BFB0B432BD22A4A2B11
:1006BC00203084000D3083120313F0005030B7004B
:0806CC000330B8005C220800B5
:0806A0004D3432343A340034C9
:0206A8004634D6
:0206AA004634D4
:0806AC004D3431343A340034BE
:0206B4000F3401
:0206B60001340D
:0206B80001340B
:02400E004A2F37
:00000001FF
