:020000000329D2
:0E000600213083120313FD00FD0B07280800B4
:100014000F3083120313FC004730FD00FD0B102842
:0A002400FC0B10280000000008008B
:06002E00000000000800C4
:1000340083120313C41B2028861221288616441B0E
:100044002528061226280616C41A2A2886112B28C3
:100054008615441A2F280611302806153C18342812
:10006400061435280610861417208610C4193C2857
:1000740086123D288616441941280612422806167F
:10008400C418462886114728861544184B2806119B
:100094004C2806153C1850280614512806108614BE
:1000A400172086103C1C58280A20592803200800D1
:0E00B400831203133E088A003D0882000800F4
:1000C200831203133C104308C4001A203C14080096
:1000D2008316031386100610061186110612861265
:1000E20083128610061086120612861106110A2045
:1000F2000A200A20861506158614172086100A2063
:100102008614172086100A208614172086100A20CB
:1001120006118614172086100A20861417208610CE
:10012200861186168614172086100A208612061556
:1001320086141720861006118614172086100A20AE
:1001420086141720861006158614172086100A209A
:1001520006118614172086108616061686150615B1
:0C0162008614172086100A203C140800A8
:10016E00C928803083120313BF00DC28C030BF00C3
:10017E00DC289430BF00DC28D430BF00DC2880306F
:10018E00BF00DC28831203133F08013A0319B82875
:10019E003F08023A0319BD283F08033A0319C02845
:1001AE003F08043A0319C328C6284003F0003F084D
:1001BE00F0077008BF007008C4001A203C10C2017E
:1001CE0042084107840000080319F5284208410738
:1001DE0084000008C3006120C20AE7283C1408000E
:1001EE005A208A110A128000840ABD0A0319BE0A17
:0801FE00F003031DF7280800BF
:100206004D3083120313A0006F30A1006130A200AD
:100216006D30A3006530A4006E30A5002030A60026
:100226004130A7006830A8006D30A9006530AA00EB
:100236006430AB00AC014930AD004430AE00203034
:10024600AF003D30B0002030B1003130B200353063
:10025600B3003230B4003330B5003030B600303041
:10026600B7003130B8003230B9003130BA00BB01C6
:10027600831686018312860169200230FB00043052
:10028600FC00BA30FD00FD0B4629FC0B4629FB0B92
:10029600462900000130C4001A200C30C4001A2080
:1002A6000130BF000330C0002030C100B7208230CB
:1002B600FC00DD30FD00FD0B5E29FC0B5E29000015
:1002C60000000230BF000230C0002D30C100B72050
:0202D6006B2992
:02400E004A2F37
:00000001FF
